{
  "contractName": "ActivityContract",
  "abi": [
    {
      "inputs": [
        {
          "internalType": "bool",
          "name": "_isActive",
          "type": "bool"
        },
        {
          "internalType": "bool",
          "name": "_isPayActive",
          "type": "bool"
        }
      ],
      "payable": false,
      "stateMutability": "nonpayable",
      "type": "constructor"
    },
    {
      "anonymous": false,
      "inputs": [
        {
          "indexed": false,
          "internalType": "string",
          "name": "_name",
          "type": "string"
        },
        {
          "indexed": false,
          "internalType": "address",
          "name": "_owner",
          "type": "address"
        },
        {
          "indexed": false,
          "internalType": "uint256",
          "name": "_limit",
          "type": "uint256"
        },
        {
          "indexed": false,
          "internalType": "uint256",
          "name": "_date",
          "type": "uint256"
        }
      ],
      "name": "ActivityCreated",
      "type": "event"
    },
    {
      "anonymous": false,
      "inputs": [
        {
          "indexed": true,
          "internalType": "address",
          "name": "oldOwner",
          "type": "address"
        },
        {
          "indexed": true,
          "internalType": "address",
          "name": "newOwner",
          "type": "address"
        }
      ],
      "name": "OwnerSet",
      "type": "event"
    },
    {
      "anonymous": false,
      "inputs": [
        {
          "indexed": false,
          "internalType": "string",
          "name": "_name",
          "type": "string"
        },
        {
          "indexed": true,
          "internalType": "address",
          "name": "previousOwner",
          "type": "address"
        },
        {
          "indexed": true,
          "internalType": "address",
          "name": "newOwner",
          "type": "address"
        }
      ],
      "name": "OwnershipTransferred",
      "type": "event"
    },
    {
      "anonymous": false,
      "inputs": [
        {
          "indexed": true,
          "internalType": "address",
          "name": "previousOwner",
          "type": "address"
        },
        {
          "indexed": true,
          "internalType": "address",
          "name": "newOwner",
          "type": "address"
        }
      ],
      "name": "OwnershipTransferred",
      "type": "event"
    },
    {
      "anonymous": false,
      "inputs": [
        {
          "indexed": false,
          "internalType": "string",
          "name": "name",
          "type": "string"
        },
        {
          "indexed": false,
          "internalType": "address",
          "name": "_Owner",
          "type": "address"
        },
        {
          "indexed": false,
          "internalType": "address",
          "name": "usr",
          "type": "address"
        },
        {
          "indexed": false,
          "internalType": "string",
          "name": "email",
          "type": "string"
        },
        {
          "indexed": false,
          "internalType": "uint256",
          "name": "value",
          "type": "uint256"
        }
      ],
      "name": "ParticipantDeletedAt",
      "type": "event"
    },
    {
      "anonymous": false,
      "inputs": [
        {
          "indexed": false,
          "internalType": "string",
          "name": "name",
          "type": "string"
        },
        {
          "indexed": false,
          "internalType": "address",
          "name": "_Owner",
          "type": "address"
        },
        {
          "indexed": false,
          "internalType": "address",
          "name": "usr",
          "type": "address"
        },
        {
          "indexed": false,
          "internalType": "string",
          "name": "email",
          "type": "string"
        },
        {
          "indexed": false,
          "internalType": "uint256",
          "name": "value",
          "type": "uint256"
        }
      ],
      "name": "ParticipantPayBackAt",
      "type": "event"
    },
    {
      "anonymous": false,
      "inputs": [
        {
          "indexed": false,
          "internalType": "string",
          "name": "name",
          "type": "string"
        },
        {
          "indexed": false,
          "internalType": "address",
          "name": "_Owner",
          "type": "address"
        },
        {
          "indexed": false,
          "internalType": "address",
          "name": "usr",
          "type": "address"
        },
        {
          "indexed": false,
          "internalType": "string",
          "name": "email",
          "type": "string"
        },
        {
          "indexed": false,
          "internalType": "uint256",
          "name": "value",
          "type": "uint256"
        }
      ],
      "name": "ParticipantRegisteredAt",
      "type": "event"
    },
    {
      "constant": false,
      "inputs": [
        {
          "internalType": "address",
          "name": "newOwner",
          "type": "address"
        }
      ],
      "name": "changeOwner",
      "outputs": [],
      "payable": false,
      "stateMutability": "nonpayable",
      "type": "function"
    },
    {
      "constant": true,
      "inputs": [],
      "name": "getOwner",
      "outputs": [
        {
          "internalType": "address",
          "name": "",
          "type": "address"
        }
      ],
      "payable": false,
      "stateMutability": "view",
      "type": "function"
    },
    {
      "constant": false,
      "inputs": [],
      "name": "kill",
      "outputs": [],
      "payable": false,
      "stateMutability": "nonpayable",
      "type": "function"
    },
    {
      "constant": false,
      "inputs": [
        {
          "internalType": "address",
          "name": "newOwner",
          "type": "address"
        }
      ],
      "name": "transferOwnership",
      "outputs": [],
      "payable": false,
      "stateMutability": "nonpayable",
      "type": "function"
    },
    {
      "constant": false,
      "inputs": [
        {
          "internalType": "string",
          "name": "_name",
          "type": "string"
        },
        {
          "internalType": "uint256",
          "name": "_limit",
          "type": "uint256"
        },
        {
          "internalType": "uint256",
          "name": "_price",
          "type": "uint256"
        },
        {
          "internalType": "uint256",
          "name": "_date",
          "type": "uint256"
        },
        {
          "internalType": "string",
          "name": "_content",
          "type": "string"
        }
      ],
      "name": "createActivity",
      "outputs": [],
      "payable": true,
      "stateMutability": "payable",
      "type": "function"
    },
    {
      "constant": false,
      "inputs": [
        {
          "internalType": "address",
          "name": "_activity",
          "type": "address"
        },
        {
          "internalType": "string",
          "name": "_email",
          "type": "string"
        }
      ],
      "name": "registerToActivity",
      "outputs": [],
      "payable": true,
      "stateMutability": "payable",
      "type": "function"
    },
    {
      "constant": true,
      "inputs": [
        {
          "internalType": "address",
          "name": "_activity",
          "type": "address"
        },
        {
          "internalType": "address",
          "name": "_participantAddr",
          "type": "address"
        }
      ],
      "name": "isRegistered",
      "outputs": [
        {
          "internalType": "bool",
          "name": "",
          "type": "bool"
        }
      ],
      "payable": false,
      "stateMutability": "view",
      "type": "function"
    },
    {
      "constant": true,
      "inputs": [
        {
          "internalType": "address",
          "name": "_activity",
          "type": "address"
        }
      ],
      "name": "getParticipationUrl",
      "outputs": [
        {
          "internalType": "string",
          "name": "",
          "type": "string"
        }
      ],
      "payable": false,
      "stateMutability": "view",
      "type": "function"
    },
    {
      "constant": true,
      "inputs": [],
      "name": "getTotalActivity",
      "outputs": [
        {
          "internalType": "uint256",
          "name": "",
          "type": "uint256"
        }
      ],
      "payable": false,
      "stateMutability": "view",
      "type": "function"
    },
    {
      "constant": true,
      "inputs": [
        {
          "internalType": "address",
          "name": "_activity",
          "type": "address"
        }
      ],
      "name": "getTotalParticipant",
      "outputs": [
        {
          "internalType": "uint256",
          "name": "",
          "type": "uint256"
        }
      ],
      "payable": false,
      "stateMutability": "view",
      "type": "function"
    },
    {
      "constant": true,
      "inputs": [
        {
          "internalType": "address",
          "name": "_activity",
          "type": "address"
        }
      ],
      "name": "getLimit",
      "outputs": [
        {
          "internalType": "uint256",
          "name": "",
          "type": "uint256"
        }
      ],
      "payable": false,
      "stateMutability": "view",
      "type": "function"
    },
    {
      "constant": true,
      "inputs": [
        {
          "internalType": "address",
          "name": "_activity",
          "type": "address"
        }
      ],
      "name": "leaveActivity",
      "outputs": [],
      "payable": false,
      "stateMutability": "view",
      "type": "function"
    },
    {
      "constant": true,
      "inputs": [
        {
          "internalType": "address",
          "name": "_activity",
          "type": "address"
        }
      ],
      "name": "getInfoActivity",
      "outputs": [
        {
          "internalType": "string",
          "name": "",
          "type": "string"
        },
        {
          "internalType": "address",
          "name": "",
          "type": "address"
        },
        {
          "internalType": "bool",
          "name": "",
          "type": "bool"
        },
        {
          "internalType": "uint256",
          "name": "",
          "type": "uint256"
        },
        {
          "internalType": "uint256",
          "name": "",
          "type": "uint256"
        },
        {
          "internalType": "uint256",
          "name": "",
          "type": "uint256"
        },
        {
          "internalType": "uint256",
          "name": "",
          "type": "uint256"
        },
        {
          "internalType": "string",
          "name": "",
          "type": "string"
        }
      ],
      "payable": false,
      "stateMutability": "view",
      "type": "function"
    },
    {
      "constant": true,
      "inputs": [
        {
          "internalType": "address",
          "name": "_activity",
          "type": "address"
        },
        {
          "internalType": "uint256",
          "name": "idx",
          "type": "uint256"
        }
      ],
      "name": "getParticipant",
      "outputs": [
        {
          "internalType": "uint256",
          "name": "index",
          "type": "uint256"
        },
        {
          "internalType": "string",
          "name": "email",
          "type": "string"
        },
        {
          "internalType": "address",
          "name": "addr",
          "type": "address"
        },
        {
          "internalType": "uint256",
          "name": "value",
          "type": "uint256"
        }
      ],
      "payable": false,
      "stateMutability": "view",
      "type": "function"
    },
    {
      "constant": false,
      "inputs": [
        {
          "internalType": "address",
          "name": "_activity",
          "type": "address"
        },
        {
          "internalType": "uint256",
          "name": "idx",
          "type": "uint256"
        }
      ],
      "name": "deleteParticipant",
      "outputs": [],
      "payable": false,
      "stateMutability": "nonpayable",
      "type": "function"
    },
    {
      "constant": false,
      "inputs": [
        {
          "internalType": "address",
          "name": "_activity",
          "type": "address"
        },
        {
          "internalType": "uint256",
          "name": "idx",
          "type": "uint256"
        },
        {
          "internalType": "bool",
          "name": "isValidated",
          "type": "bool"
        }
      ],
      "name": "validateStudentStatus",
      "outputs": [],
      "payable": false,
      "stateMutability": "nonpayable",
      "type": "function"
    },
    {
      "constant": false,
      "inputs": [
        {
          "internalType": "address",
          "name": "_activity",
          "type": "address"
        },
        {
          "internalType": "string",
          "name": "url",
          "type": "string"
        }
      ],
      "name": "setParticipationLink",
      "outputs": [],
      "payable": false,
      "stateMutability": "nonpayable",
      "type": "function"
    },
    {
      "constant": false,
      "inputs": [
        {
          "internalType": "address",
          "name": "_activity",
          "type": "address"
        },
        {
          "internalType": "uint256",
          "name": "_price",
          "type": "uint256"
        }
      ],
      "name": "setPrice",
      "outputs": [],
      "payable": false,
      "stateMutability": "nonpayable",
      "type": "function"
    },
    {
      "constant": true,
      "inputs": [
        {
          "internalType": "address",
          "name": "_activity",
          "type": "address"
        }
      ],
      "name": "getPrice",
      "outputs": [
        {
          "internalType": "uint256",
          "name": "",
          "type": "uint256"
        }
      ],
      "payable": false,
      "stateMutability": "view",
      "type": "function"
    },
    {
      "constant": false,
      "inputs": [
        {
          "internalType": "address",
          "name": "_activity",
          "type": "address"
        }
      ],
      "name": "closeParticipation",
      "outputs": [],
      "payable": false,
      "stateMutability": "nonpayable",
      "type": "function"
    },
    {
      "constant": false,
      "inputs": [
        {
          "internalType": "address",
          "name": "_activity",
          "type": "address"
        }
      ],
      "name": "openParticipation",
      "outputs": [],
      "payable": false,
      "stateMutability": "nonpayable",
      "type": "function"
    },
    {
      "constant": false,
      "inputs": [
        {
          "internalType": "address",
          "name": "_activity",
          "type": "address"
        }
      ],
      "name": "closePayActive",
      "outputs": [],
      "payable": false,
      "stateMutability": "nonpayable",
      "type": "function"
    },
    {
      "constant": false,
      "inputs": [
        {
          "internalType": "address",
          "name": "_activity",
          "type": "address"
        }
      ],
      "name": "openPayActive",
      "outputs": [],
      "payable": false,
      "stateMutability": "nonpayable",
      "type": "function"
    },
    {
      "constant": false,
      "inputs": [
        {
          "internalType": "address",
          "name": "_activity",
          "type": "address"
        },
        {
          "internalType": "string",
          "name": "_key",
          "type": "string"
        }
      ],
      "name": "validateMeReturnMoney",
      "outputs": [],
      "payable": false,
      "stateMutability": "nonpayable",
      "type": "function"
    },
    {
      "constant": false,
      "inputs": [
        {
          "internalType": "address",
          "name": "_activity",
          "type": "address"
        },
        {
          "internalType": "bytes32",
          "name": "_hash",
          "type": "bytes32"
        }
      ],
      "name": "setValidateHash",
      "outputs": [],
      "payable": false,
      "stateMutability": "nonpayable",
      "type": "function"
    },
    {
      "constant": true,
      "inputs": [
        {
          "internalType": "address",
          "name": "_activity",
          "type": "address"
        }
      ],
      "name": "getValidateHash",
      "outputs": [
        {
          "internalType": "bytes32",
          "name": "",
          "type": "bytes32"
        }
      ],
      "payable": false,
      "stateMutability": "view",
      "type": "function"
    },
    {
      "constant": false,
      "inputs": [
        {
          "internalType": "address",
          "name": "_activity",
          "type": "address"
        },
        {
          "internalType": "address",
          "name": "newOwner",
          "type": "address"
        }
      ],
      "name": "transferOwnershipActivity",
      "outputs": [],
      "payable": false,
      "stateMutability": "nonpayable",
      "type": "function"
    },
    {
      "constant": true,
      "inputs": [
        {
          "internalType": "address",
          "name": "_activity",
          "type": "address"
        }
      ],
      "name": "getName",
      "outputs": [
        {
          "internalType": "string",
          "name": "",
          "type": "string"
        }
      ],
      "payable": false,
      "stateMutability": "view",
      "type": "function"
    },
    {
      "constant": true,
      "inputs": [],
      "name": "getActive",
      "outputs": [
        {
          "internalType": "bool",
          "name": "",
          "type": "bool"
        }
      ],
      "payable": false,
      "stateMutability": "view",
      "type": "function"
    },
    {
      "constant": false,
      "inputs": [],
      "name": "setActive",
      "outputs": [],
      "payable": false,
      "stateMutability": "nonpayable",
      "type": "function"
    }
  ],
  "bytecode": "0x608060405234801561001057600080fd5b50604051620045ad380380620045ad8339818101604052604081101561003557600080fd5b810190808051906020019092919080519060200190929190505050336000806101000a81548173ffffffffffffffffffffffffffffffffffffffff021916908373ffffffffffffffffffffffffffffffffffffffff1602179055506000809054906101000a900473ffffffffffffffffffffffffffffffffffffffff1673ffffffffffffffffffffffffffffffffffffffff16600073ffffffffffffffffffffffffffffffffffffffff167f342827c97908e5e2f71151c08502a66d44b6f758e3ac2f1de95f02eb95f0a73560405160405180910390a36000809054906101000a900473ffffffffffffffffffffffffffffffffffffffff1673ffffffffffffffffffffffffffffffffffffffff16600073ffffffffffffffffffffffffffffffffffffffff167f8be0079c531659141344cd1fd0a4f28419497f9722a3daafe3b4186f6b6457e060405160405180910390a381600060146101000a81548160ff02191690831515021790555080600060156101000a81548160ff02191690831515021790555050506143df80620001ce6000396000f3fe6080604052600436106101cb5760003560e01c8063873f731c116100f7578063d6f0f08511610095578063ee43737e11610064578063ee43737e14610f52578063f2fde38b14610fb9578063f6ef5b5a1461100a578063f77c4f5214611065576101cb565b8063d6f0f08514610cc5578063d995a86014610d20578063e275a7d814610d91578063e2e9389514610de2576101cb565b80639fe87848116100d15780639fe8784814610aab578063a6f9dae114610bc0578063af45c90614610c11578063d3da927f14610c3c576101cb565b8063873f731c146109b2578063893d20e814610a035780639b867f6914610a5a576101cb565b8063424ad0c31161016f578063605b7a2c1161013e578063605b7a2c1461081157806370040a7e1461086257806370acd3a3146108b3578063760a8c2a1461099b576101cb565b8063424ad0c3146105b357806357a168741461067d5780635e0e348f146106e25780635fd4b08a14610747576101cb565b80631ce28e72116101ab5780631ce28e72146103ea578063414511031461044f57806341976e091461053757806341c0e1b51461059c576101cb565b80629ebb10146101d0578062e4768b146101ff578063169262921461025a575b600080fd5b3480156101dc57600080fd5b506101e5611140565b604051808215151515815260200191505060405180910390f35b34801561020b57600080fd5b506102586004803603604081101561022257600080fd5b81019080803573ffffffffffffffffffffffffffffffffffffffff16906020019092919080359060200190929190505050611156565b005b34801561026657600080fd5b506102a96004803603602081101561027d57600080fd5b81019080803573ffffffffffffffffffffffffffffffffffffffff169060200190929190505050611256565b60405180806020018973ffffffffffffffffffffffffffffffffffffffff1673ffffffffffffffffffffffffffffffffffffffff168152602001881515151581526020018781526020018681526020018581526020018481526020018060200183810383528b818151815260200191508051906020019080838360005b83811015610341578082015181840152602081019050610326565b50505050905090810190601f16801561036e5780820380516001836020036101000a031916815260200191505b50838103825284818151815260200191508051906020019080838360005b838110156103a757808201518184015260208101905061038c565b50505050905090810190601f1680156103d45780820380516001836020036101000a031916815260200191505b509a505050505050505050505060405180910390f35b3480156103f657600080fd5b506104396004803603602081101561040d57600080fd5b81019080803573ffffffffffffffffffffffffffffffffffffffff16906020019092919050505061144d565b6040518082815260200191505060405180910390f35b34801561045b57600080fd5b506105356004803603604081101561047257600080fd5b81019080803573ffffffffffffffffffffffffffffffffffffffff169060200190929190803590602001906401000000008111156104af57600080fd5b8201836020820111156104c157600080fd5b803590602001918460018302840111640100000000831117156104e357600080fd5b91908080601f016020809104026020016040519081016040528093929190818152602001838380828437600081840152601f19601f820116905080830192505050505050509192919290505050611499565b005b34801561054357600080fd5b506105866004803603602081101561055a57600080fd5b81019080803573ffffffffffffffffffffffffffffffffffffffff169060200190929190505050611a18565b6040518082815260200191505060405180910390f35b3480156105a857600080fd5b506105b1611a64565b005b3480156105bf57600080fd5b50610602600480360360208110156105d657600080fd5b81019080803573ffffffffffffffffffffffffffffffffffffffff169060200190929190505050611b60565b6040518080602001828103825283818151815260200191508051906020019080838360005b83811015610642578082015181840152602081019050610627565b50505050905090810190601f16801561066f5780820380516001836020036101000a031916815260200191505b509250505060405180910390f35b34801561068957600080fd5b506106cc600480360360208110156106a057600080fd5b81019080803573ffffffffffffffffffffffffffffffffffffffff169060200190929190505050611db0565b6040518082815260200191505060405180910390f35b3480156106ee57600080fd5b506107316004803603602081101561070557600080fd5b81019080803573ffffffffffffffffffffffffffffffffffffffff169060200190929190505050611e98565b6040518082815260200191505060405180910390f35b34801561075357600080fd5b506107966004803603602081101561076a57600080fd5b81019080803573ffffffffffffffffffffffffffffffffffffffff169060200190929190505050611ee4565b6040518080602001828103825283818151815260200191508051906020019080838360005b838110156107d65780820151818401526020810190506107bb565b50505050905090810190601f1680156108035780820380516001836020036101000a031916815260200191505b509250505060405180910390f35b34801561081d57600080fd5b506108606004803603602081101561083457600080fd5b81019080803573ffffffffffffffffffffffffffffffffffffffff169060200190929190505050611fc8565b005b34801561086e57600080fd5b506108b16004803603602081101561088557600080fd5b81019080803573ffffffffffffffffffffffffffffffffffffffff1690602001909291905050506120db565b005b3480156108bf57600080fd5b50610999600480360360408110156108d657600080fd5b81019080803573ffffffffffffffffffffffffffffffffffffffff1690602001909291908035906020019064010000000081111561091357600080fd5b82018360208201111561092557600080fd5b8035906020019184600183028401116401000000008311171561094757600080fd5b91908080601f016020809104026020016040519081016040528093929190818152602001838380828437600081840152601f19601f8201169050808301925050505050505091929192905050506121b1565b005b3480156109a757600080fd5b506109b06122c1565b005b3480156109be57600080fd5b50610a01600480360360208110156109d557600080fd5b81019080803573ffffffffffffffffffffffffffffffffffffffff1690602001909291905050506123a0565b005b348015610a0f57600080fd5b50610a186124b2565b604051808273ffffffffffffffffffffffffffffffffffffffff1673ffffffffffffffffffffffffffffffffffffffff16815260200191505060405180910390f35b348015610a6657600080fd5b50610aa960048036036020811015610a7d57600080fd5b81019080803573ffffffffffffffffffffffffffffffffffffffff1690602001909291905050506124db565b005b348015610ab757600080fd5b50610b0460048036036040811015610ace57600080fd5b81019080803573ffffffffffffffffffffffffffffffffffffffff169060200190929190803590602001909291905050506125ed565b60405180858152602001806020018473ffffffffffffffffffffffffffffffffffffffff1673ffffffffffffffffffffffffffffffffffffffff168152602001838152602001828103825285818151815260200191508051906020019080838360005b83811015610b82578082015181840152602081019050610b67565b50505050905090810190601f168015610baf5780820380516001836020036101000a031916815260200191505b509550505050505060405180910390f35b348015610bcc57600080fd5b50610c0f60048036036020811015610be357600080fd5b81019080803573ffffffffffffffffffffffffffffffffffffffff16906020019092919050505061284a565b005b348015610c1d57600080fd5b50610c266129ca565b6040518082815260200191505060405180910390f35b348015610c4857600080fd5b50610cab60048036036040811015610c5f57600080fd5b81019080803573ffffffffffffffffffffffffffffffffffffffff169060200190929190803573ffffffffffffffffffffffffffffffffffffffff1690602001909291905050506129d4565b604051808215151515815260200191505060405180910390f35b348015610cd157600080fd5b50610d1e60048036036040811015610ce857600080fd5b81019080803573ffffffffffffffffffffffffffffffffffffffff16906020019092919080359060200190929190505050612b6e565b005b348015610d2c57600080fd5b50610d8f60048036036040811015610d4357600080fd5b81019080803573ffffffffffffffffffffffffffffffffffffffff169060200190929190803573ffffffffffffffffffffffffffffffffffffffff169060200190929190505050613077565b005b348015610d9d57600080fd5b50610de060048036036020811015610db457600080fd5b81019080803573ffffffffffffffffffffffffffffffffffffffff1690602001909291905050506132ff565b005b610f50600480360360a0811015610df857600080fd5b8101908080359060200190640100000000811115610e1557600080fd5b820183602082011115610e2757600080fd5b80359060200191846001830284011164010000000083111715610e4957600080fd5b91908080601f016020809104026020016040519081016040528093929190818152602001838380828437600081840152601f19601f82011690508083019250505050505050919291929080359060200190929190803590602001909291908035906020019092919080359060200190640100000000811115610eca57600080fd5b820183602082011115610edc57600080fd5b80359060200191846001830284011164010000000083111715610efe57600080fd5b91908080601f016020809104026020016040519081016040528093929190818152602001838380828437600081840152601f19601f820116905080830192505050505050509192919290505050613412565b005b348015610f5e57600080fd5b50610fb760048036036060811015610f7557600080fd5b81019080803573ffffffffffffffffffffffffffffffffffffffff169060200190929190803590602001909291908035151590602001909291905050506137f7565b005b348015610fc557600080fd5b5061100860048036036020811015610fdc57600080fd5b81019080803573ffffffffffffffffffffffffffffffffffffffff169060200190929190505050613992565b005b34801561101657600080fd5b506110636004803603604081101561102d57600080fd5b81019080803573ffffffffffffffffffffffffffffffffffffffff16906020019092919080359060200190929190505050613b4c565b005b61113e6004803603604081101561107b57600080fd5b81019080803573ffffffffffffffffffffffffffffffffffffffff169060200190929190803590602001906401000000008111156110b857600080fd5b8201836020820111156110ca57600080fd5b803590602001918460018302840111640100000000831117156110ec57600080fd5b91908080601f016020809104026020016040519081016040528093929190818152602001838380828437600081840152601f19601f820116905080830192505050505050509192919290505050613c52565b005b60008060149054906101000a900460ff16905090565b600060149054906101000a900460ff1661116f57600080fd5b813373ffffffffffffffffffffffffffffffffffffffff16600160008373ffffffffffffffffffffffffffffffffffffffff1673ffffffffffffffffffffffffffffffffffffffff16815260200190815260200160002060010160009054906101000a900473ffffffffffffffffffffffffffffffffffffffff1673ffffffffffffffffffffffffffffffffffffffff161461120a57600080fd5b81600160008573ffffffffffffffffffffffffffffffffffffffff1673ffffffffffffffffffffffffffffffffffffffff16815260200190815260200160002060020181905550505050565b606060008060008060008060606000600160008b73ffffffffffffffffffffffffffffffffffffffff1673ffffffffffffffffffffffffffffffffffffffff1681526020019081526020016000209050806000018160010160009054906101000a900473ffffffffffffffffffffffffffffffffffffffff168260010160149054906101000a900460ff16836002015484600401548560030154866005015487600601878054600181600116156101000203166002900480601f01602080910402602001604051908101604052809291908181526020018280546001816001161561010002031660029004801561138e5780601f106113635761010080835404028352916020019161138e565b820191906000526020600020905b81548152906001019060200180831161137157829003601f168201915b50505050509750808054600181600116156101000203166002900480601f01602080910402602001604051908101604052809291908181526020018280546001816001161561010002031660029004801561142a5780601f106113ff5761010080835404028352916020019161142a565b820191906000526020600020905b81548152906001019060200180831161140d57829003601f168201915b505050505090509850985098509850985098509850985050919395975091939597565b6000600160008373ffffffffffffffffffffffffffffffffffffffff1673ffffffffffffffffffffffffffffffffffffffff168152602001908152602001600020600301549050919050565b600060149054906101000a900460ff166114b257600080fd5b81600160008273ffffffffffffffffffffffffffffffffffffffff1673ffffffffffffffffffffffffffffffffffffffff16815260200190815260200160002060010160149054906101000a900460ff1661150c57600080fd5b61151683336129d4565b61151f57600080fd5b6000600160008573ffffffffffffffffffffffffffffffffffffffff1673ffffffffffffffffffffffffffffffffffffffff1681526020019081526020016000209050826040516020018082805190602001908083835b602083106115995780518252602082019150602081019050602083039250611576565b6001836020036101000a0380198251168184511680821785525050505050509050019150506040516020818303038152906040528051906020012081600801541461164c576040517f08c379a00000000000000000000000000000000000000000000000000000000081526004018080602001828103825260108152602001807f4b6579206973206e6f742076616c69640000000000000000000000000000000081525060200191505060405180910390fd5b60008160090160003373ffffffffffffffffffffffffffffffffffffffff1673ffffffffffffffffffffffffffffffffffffffff16815260200190815260200160002090508060010160169054906101000a900460ff1615611716576040517f08c379a000000000000000000000000000000000000000000000000000000000815260040180806020018281038252601b8152602001807f5061727469636970616e7420616c72656164792064656c65746564000000000081525060200191505060405180910390fd5b8060010160019054906101000a900460ff161561179b576040517f08c379a000000000000000000000000000000000000000000000000000000000815260040180806020018281038252601a8152602001807f5061727469636970616e74206973206e6f74207061794261636b00000000000081525060200191505060405180910390fd5b60018160010160016101000a81548160ff02191690831515021790555060008160010160029054906101000a900473ffffffffffffffffffffffffffffffffffffffff1690508073ffffffffffffffffffffffffffffffffffffffff166108fc60068460020154029081150290604051600060405180830381858888f1935050505015801561182e573d6000803e3d6000fd5b507f2d273dc18b4f1672ab5d33e98c00245d4f38c3a1c510cd1426d3f45bfbc443b0836000018460010160009054906101000a900473ffffffffffffffffffffffffffffffffffffffff163385600001866002015460405180806020018673ffffffffffffffffffffffffffffffffffffffff1673ffffffffffffffffffffffffffffffffffffffff1681526020018573ffffffffffffffffffffffffffffffffffffffff1673ffffffffffffffffffffffffffffffffffffffff1681526020018060200184815260200183810383528881815460018160011615610100020316600290048152602001915080546001816001161561010002031660029004801561197a5780601f1061194f5761010080835404028352916020019161197a565b820191906000526020600020905b81548152906001019060200180831161195d57829003601f168201915b50508381038252858181546001816001161561010002031660029004815260200191508054600181600116156101000203166002900480156119fd5780601f106119d2576101008083540402835291602001916119fd565b820191906000526020600020905b8154815290600101906020018083116119e057829003601f168201915b505097505050505050505060405180910390a1505050505050565b6000600160008373ffffffffffffffffffffffffffffffffffffffff1673ffffffffffffffffffffffffffffffffffffffff168152602001908152602001600020600201549050919050565b6000809054906101000a900473ffffffffffffffffffffffffffffffffffffffff1673ffffffffffffffffffffffffffffffffffffffff163373ffffffffffffffffffffffffffffffffffffffff1614611b26576040517f08c379a00000000000000000000000000000000000000000000000000000000081526004018080602001828103825260138152602001807f43616c6c6572206973206e6f74206f776e65720000000000000000000000000081525060200191505060405180910390fd5b6000809054906101000a900473ffffffffffffffffffffffffffffffffffffffff1673ffffffffffffffffffffffffffffffffffffffff16ff5b6060600060149054906101000a900460ff16611b7b57600080fd5b81600160008273ffffffffffffffffffffffffffffffffffffffff1673ffffffffffffffffffffffffffffffffffffffff16815260200190815260200160002060010160149054906101000a900460ff16611bd557600080fd5b611bdf83336129d4565b611c34576040517f08c379a000000000000000000000000000000000000000000000000000000000815260040180806020018281038252603c815260200180614347603c913960400191505060405180910390fd5b600160008473ffffffffffffffffffffffffffffffffffffffff1673ffffffffffffffffffffffffffffffffffffffff16815260200190815260200160002060090160003373ffffffffffffffffffffffffffffffffffffffff1673ffffffffffffffffffffffffffffffffffffffff16815260200190815260200160002060010160009054906101000a900460ff16611ccd57600080fd5b600160008473ffffffffffffffffffffffffffffffffffffffff1673ffffffffffffffffffffffffffffffffffffffff1681526020019081526020016000206007018054600181600116156101000203166002900480601f016020809104026020016040519081016040528092919081815260200182805460018160011615610100020316600290048015611da35780601f10611d7857610100808354040283529160200191611da3565b820191906000526020600020905b815481529060010190602001808311611d8657829003601f168201915b5050505050915050919050565b6000813373ffffffffffffffffffffffffffffffffffffffff16600160008373ffffffffffffffffffffffffffffffffffffffff1673ffffffffffffffffffffffffffffffffffffffff16815260200190815260200160002060010160009054906101000a900473ffffffffffffffffffffffffffffffffffffffff1673ffffffffffffffffffffffffffffffffffffffff1614611e4d57600080fd5b600160008473ffffffffffffffffffffffffffffffffffffffff1673ffffffffffffffffffffffffffffffffffffffff16815260200190815260200160002060080154915050919050565b6000600160008373ffffffffffffffffffffffffffffffffffffffff1673ffffffffffffffffffffffffffffffffffffffff168152602001908152602001600020600401549050919050565b6060600160008373ffffffffffffffffffffffffffffffffffffffff1673ffffffffffffffffffffffffffffffffffffffff1681526020019081526020016000206000018054600181600116156101000203166002900480601f016020809104026020016040519081016040528092919081815260200182805460018160011615610100020316600290048015611fbc5780601f10611f9157610100808354040283529160200191611fbc565b820191906000526020600020905b815481529060010190602001808311611f9f57829003601f168201915b50505050509050919050565b600060149054906101000a900460ff16611fe157600080fd5b803373ffffffffffffffffffffffffffffffffffffffff16600160008373ffffffffffffffffffffffffffffffffffffffff1673ffffffffffffffffffffffffffffffffffffffff16815260200190815260200160002060010160009054906101000a900473ffffffffffffffffffffffffffffffffffffffff1673ffffffffffffffffffffffffffffffffffffffff161461207c57600080fd5b6000600160008473ffffffffffffffffffffffffffffffffffffffff1673ffffffffffffffffffffffffffffffffffffffff16815260200190815260200160002060010160146101000a81548160ff0219169083151502179055505050565b600060149054906101000a900460ff166120f457600080fd5b80600160008273ffffffffffffffffffffffffffffffffffffffff1673ffffffffffffffffffffffffffffffffffffffff16815260200190815260200160002060010160149054906101000a900460ff1661214e57600080fd5b61215882336129d4565b6121ad576040517f08c379a000000000000000000000000000000000000000000000000000000000815260040180806020018281038252602981526020018061431e6029913960400191505060405180910390fd5b5050565b600060149054906101000a900460ff166121ca57600080fd5b813373ffffffffffffffffffffffffffffffffffffffff16600160008373ffffffffffffffffffffffffffffffffffffffff1673ffffffffffffffffffffffffffffffffffffffff16815260200190815260200160002060010160009054906101000a900473ffffffffffffffffffffffffffffffffffffffff1673ffffffffffffffffffffffffffffffffffffffff161461226557600080fd5b81600160008573ffffffffffffffffffffffffffffffffffffffff1673ffffffffffffffffffffffffffffffffffffffff16815260200190815260200160002060070190805190602001906122bb9291906141f8565b50505050565b6000809054906101000a900473ffffffffffffffffffffffffffffffffffffffff1673ffffffffffffffffffffffffffffffffffffffff163373ffffffffffffffffffffffffffffffffffffffff1614612383576040517f08c379a00000000000000000000000000000000000000000000000000000000081526004018080602001828103825260138152602001807f43616c6c6572206973206e6f74206f776e65720000000000000000000000000081525060200191505060405180910390fd5b6001600060146101000a81548160ff021916908315150217905550565b600060149054906101000a900460ff166123b957600080fd5b803373ffffffffffffffffffffffffffffffffffffffff16600160008373ffffffffffffffffffffffffffffffffffffffff1673ffffffffffffffffffffffffffffffffffffffff16815260200190815260200160002060010160009054906101000a900473ffffffffffffffffffffffffffffffffffffffff1673ffffffffffffffffffffffffffffffffffffffff161461245457600080fd5b60018060008473ffffffffffffffffffffffffffffffffffffffff1673ffffffffffffffffffffffffffffffffffffffff16815260200190815260200160002060010160146101000a81548160ff0219169083151502179055505050565b60008060009054906101000a900473ffffffffffffffffffffffffffffffffffffffff16905090565b600060149054906101000a900460ff166124f457600080fd5b803373ffffffffffffffffffffffffffffffffffffffff16600160008373ffffffffffffffffffffffffffffffffffffffff1673ffffffffffffffffffffffffffffffffffffffff16815260200190815260200160002060010160009054906101000a900473ffffffffffffffffffffffffffffffffffffffff1673ffffffffffffffffffffffffffffffffffffffff161461258f57600080fd5b60018060008473ffffffffffffffffffffffffffffffffffffffff1673ffffffffffffffffffffffffffffffffffffffff16815260200190815260200160002060010160156101000a81548160ff0219169083151502179055505050565b60006060600080600060149054906101000a900460ff1661260d57600080fd5b853373ffffffffffffffffffffffffffffffffffffffff16600160008373ffffffffffffffffffffffffffffffffffffffff1673ffffffffffffffffffffffffffffffffffffffff16815260200190815260200160002060010160009054906101000a900473ffffffffffffffffffffffffffffffffffffffff1673ffffffffffffffffffffffffffffffffffffffff16146126a857600080fd5b6000600160008973ffffffffffffffffffffffffffffffffffffffff1673ffffffffffffffffffffffffffffffffffffffff1681526020019081526020016000209050600081600a01600089815260200190815260200160002060009054906101000a900473ffffffffffffffffffffffffffffffffffffffff16905060008260090160008373ffffffffffffffffffffffffffffffffffffffff1673ffffffffffffffffffffffffffffffffffffffff168152602001908152602001600020905088816000018260010160029054906101000a900473ffffffffffffffffffffffffffffffffffffffff168360020154828054600181600116156101000203166002900480601f01602080910402602001604051908101604052809291908181526020018280546001816001161561010002031660029004801561282e5780601f106128035761010080835404028352916020019161282e565b820191906000526020600020905b81548152906001019060200180831161281157829003601f168201915b5050505050925097509750975097505050505092959194509250565b6000809054906101000a900473ffffffffffffffffffffffffffffffffffffffff1673ffffffffffffffffffffffffffffffffffffffff163373ffffffffffffffffffffffffffffffffffffffff161461290c576040517f08c379a00000000000000000000000000000000000000000000000000000000081526004018080602001828103825260138152602001807f43616c6c6572206973206e6f74206f776e65720000000000000000000000000081525060200191505060405180910390fd5b8073ffffffffffffffffffffffffffffffffffffffff166000809054906101000a900473ffffffffffffffffffffffffffffffffffffffff1673ffffffffffffffffffffffffffffffffffffffff167f342827c97908e5e2f71151c08502a66d44b6f758e3ac2f1de95f02eb95f0a73560405160405180910390a3806000806101000a81548173ffffffffffffffffffffffffffffffffffffffff021916908373ffffffffffffffffffffffffffffffffffffffff16021790555050565b6000600354905090565b600080600160008573ffffffffffffffffffffffffffffffffffffffff1673ffffffffffffffffffffffffffffffffffffffff1681526020019081526020016000209050600073ffffffffffffffffffffffffffffffffffffffff168160010160009054906101000a900473ffffffffffffffffffffffffffffffffffffffff1673ffffffffffffffffffffffffffffffffffffffff1614158015612b0a5750600073ffffffffffffffffffffffffffffffffffffffff168160090160008573ffffffffffffffffffffffffffffffffffffffff1673ffffffffffffffffffffffffffffffffffffffff16815260200190815260200160002060010160029054906101000a900473ffffffffffffffffffffffffffffffffffffffff1673ffffffffffffffffffffffffffffffffffffffff1614155b8015612b6557508060090160008473ffffffffffffffffffffffffffffffffffffffff1673ffffffffffffffffffffffffffffffffffffffff16815260200190815260200160002060010160169054906101000a900460ff16155b91505092915050565b600060149054906101000a900460ff16612b8757600080fd5b813373ffffffffffffffffffffffffffffffffffffffff16600160008373ffffffffffffffffffffffffffffffffffffffff1673ffffffffffffffffffffffffffffffffffffffff16815260200190815260200160002060010160009054906101000a900473ffffffffffffffffffffffffffffffffffffffff1673ffffffffffffffffffffffffffffffffffffffff1614612c2257600080fd5b6000600160008573ffffffffffffffffffffffffffffffffffffffff1673ffffffffffffffffffffffffffffffffffffffff1681526020019081526020016000209050600081600a01600085815260200190815260200160002060009054906101000a900473ffffffffffffffffffffffffffffffffffffffff16905060008260090160008373ffffffffffffffffffffffffffffffffffffffff1673ffffffffffffffffffffffffffffffffffffffff16815260200190815260200160002090508060010160169054906101000a900460ff1615612d69576040517f08c379a000000000000000000000000000000000000000000000000000000000815260040180806020018281038252601b8152602001807f5061727469636970616e7420616c72656164792064656c65746564000000000081525060200191505060405180910390fd5b8060010160019054906101000a900460ff1615612dee576040517f08c379a000000000000000000000000000000000000000000000000000000000815260040180806020018281038252601a8152602001807f5061727469636970616e74206973206e6f74207061794261636b00000000000081525060200191505060405180910390fd5b60018160010160166101000a81548160ff02191690831515021790555060018160010160016101000a81548160ff02191690831515021790555082600401600081548092919060019003919050555060008160010160029054906101000a900473ffffffffffffffffffffffffffffffffffffffff1690508073ffffffffffffffffffffffffffffffffffffffff166108fc83600201549081150290604051600060405180830381858888f19350505050158015612eb0573d6000803e3d6000fd5b507f020250c059c13097f34c609c0cfa708a4451028ab1ab7eb252ea662eb9d62f5d84600001883385600001866002015460405180806020018673ffffffffffffffffffffffffffffffffffffffff1673ffffffffffffffffffffffffffffffffffffffff1681526020018573ffffffffffffffffffffffffffffffffffffffff1673ffffffffffffffffffffffffffffffffffffffff16815260200180602001848152602001838103835288818154600181600116156101000203166002900481526020019150805460018160011615610100020316600290048015612fd85780601f10612fad57610100808354040283529160200191612fd8565b820191906000526020600020905b815481529060010190602001808311612fbb57829003601f168201915b505083810382528581815460018160011615610100020316600290048152602001915080546001816001161561010002031660029004801561305b5780601f106130305761010080835404028352916020019161305b565b820191906000526020600020905b81548152906001019060200180831161303e57829003601f168201915b505097505050505050505060405180910390a150505050505050565b600060149054906101000a900460ff1661309057600080fd5b813373ffffffffffffffffffffffffffffffffffffffff16600160008373ffffffffffffffffffffffffffffffffffffffff1673ffffffffffffffffffffffffffffffffffffffff16815260200190815260200160002060010160009054906101000a900473ffffffffffffffffffffffffffffffffffffffff1673ffffffffffffffffffffffffffffffffffffffff161461312b57600080fd5b6000600160008573ffffffffffffffffffffffffffffffffffffffff1673ffffffffffffffffffffffffffffffffffffffff1681526020019081526020016000209050600073ffffffffffffffffffffffffffffffffffffffff168373ffffffffffffffffffffffffffffffffffffffff1614156131a857600080fd5b8273ffffffffffffffffffffffffffffffffffffffff168160010160009054906101000a900473ffffffffffffffffffffffffffffffffffffffff1673ffffffffffffffffffffffffffffffffffffffff167f6840904f5b31827f74e1497360da245f56e530c8c3de3163a2d31f11493273c68360000160405180806020018281038252838181546001816001161561010002031660029004815260200191508054600181600116156101000203166002900480156132a85780601f1061327d576101008083540402835291602001916132a8565b820191906000526020600020905b81548152906001019060200180831161328b57829003601f168201915b50509250505060405180910390a3828160010160006101000a81548173ffffffffffffffffffffffffffffffffffffffff021916908373ffffffffffffffffffffffffffffffffffffffff16021790555050505050565b600060149054906101000a900460ff1661331857600080fd5b803373ffffffffffffffffffffffffffffffffffffffff16600160008373ffffffffffffffffffffffffffffffffffffffff1673ffffffffffffffffffffffffffffffffffffffff16815260200190815260200160002060010160009054906101000a900473ffffffffffffffffffffffffffffffffffffffff1673ffffffffffffffffffffffffffffffffffffffff16146133b357600080fd5b6000600160008473ffffffffffffffffffffffffffffffffffffffff1673ffffffffffffffffffffffffffffffffffffffff16815260200190815260200160002060010160156101000a81548160ff0219169083151502179055505050565b600060149054906101000a900460ff1661342b57600080fd5b67016345785d8a0000341461343f57600080fd5b600073ffffffffffffffffffffffffffffffffffffffff16600160003373ffffffffffffffffffffffffffffffffffffffff1673ffffffffffffffffffffffffffffffffffffffff16815260200190815260200160002060010160009054906101000a900473ffffffffffffffffffffffffffffffffffffffff1673ffffffffffffffffffffffffffffffffffffffff16146134da57600080fd5b6040518061016001604052808681526020013373ffffffffffffffffffffffffffffffffffffffff168152602001600115158152602001600015158152602001848152602001858152602001600081526020018381526020018281526020016040518060200160405280600081525081526020016000801b815250600160003373ffffffffffffffffffffffffffffffffffffffff1673ffffffffffffffffffffffffffffffffffffffff16815260200190815260200160002060008201518160000190805190602001906135b0929190614278565b5060208201518160010160006101000a81548173ffffffffffffffffffffffffffffffffffffffff021916908373ffffffffffffffffffffffffffffffffffffffff16021790555060408201518160010160146101000a81548160ff02191690831515021790555060608201518160010160156101000a81548160ff0219169083151502179055506080820151816002015560a0820151816003015560c0820151816004015560e0820151816005015561010082015181600601908051906020019061367d929190614278565b5061012082015181600701908051906020019061369b929190614278565b5061014082015181600801559050506003600081548092919060010191905055503360026000600354815260200190815260200160002060006101000a81548173ffffffffffffffffffffffffffffffffffffffff021916908373ffffffffffffffffffffffffffffffffffffffff1602179055507f131c6313ee434534c7af9cd09fea2c8f4d21548f9706a2e498ba9f364a682f598533868560405180806020018573ffffffffffffffffffffffffffffffffffffffff1673ffffffffffffffffffffffffffffffffffffffff168152602001848152602001838152602001828103825286818151815260200191508051906020019080838360005b838110156137b3578082015181840152602081019050613798565b50505050905090810190601f1680156137e05780820380516001836020036101000a031916815260200191505b509550505050505060405180910390a15050505050565b600060149054906101000a900460ff1661381057600080fd5b823373ffffffffffffffffffffffffffffffffffffffff16600160008373ffffffffffffffffffffffffffffffffffffffff1673ffffffffffffffffffffffffffffffffffffffff16815260200190815260200160002060010160009054906101000a900473ffffffffffffffffffffffffffffffffffffffff1673ffffffffffffffffffffffffffffffffffffffff16146138ab57600080fd5b6000600160008673ffffffffffffffffffffffffffffffffffffffff1673ffffffffffffffffffffffffffffffffffffffff1681526020019081526020016000209050600081600a01600086815260200190815260200160002060009054906101000a900473ffffffffffffffffffffffffffffffffffffffff16905060008260090160008373ffffffffffffffffffffffffffffffffffffffff1673ffffffffffffffffffffffffffffffffffffffff1681526020019081526020016000209050848160010160006101000a81548160ff02191690831515021790555050505050505050565b6000809054906101000a900473ffffffffffffffffffffffffffffffffffffffff1673ffffffffffffffffffffffffffffffffffffffff163373ffffffffffffffffffffffffffffffffffffffff1614613a54576040517f08c379a00000000000000000000000000000000000000000000000000000000081526004018080602001828103825260138152602001807f43616c6c6572206973206e6f74206f776e65720000000000000000000000000081525060200191505060405180910390fd5b600073ffffffffffffffffffffffffffffffffffffffff168173ffffffffffffffffffffffffffffffffffffffff161415613a8e57600080fd5b8073ffffffffffffffffffffffffffffffffffffffff166000809054906101000a900473ffffffffffffffffffffffffffffffffffffffff1673ffffffffffffffffffffffffffffffffffffffff167f8be0079c531659141344cd1fd0a4f28419497f9722a3daafe3b4186f6b6457e060405160405180910390a3806000806101000a81548173ffffffffffffffffffffffffffffffffffffffff021916908373ffffffffffffffffffffffffffffffffffffffff16021790555050565b600060149054906101000a900460ff16613b6557600080fd5b813373ffffffffffffffffffffffffffffffffffffffff16600160008373ffffffffffffffffffffffffffffffffffffffff1673ffffffffffffffffffffffffffffffffffffffff16815260200190815260200160002060010160009054906101000a900473ffffffffffffffffffffffffffffffffffffffff1673ffffffffffffffffffffffffffffffffffffffff1614613c0057600080fd5b6000600160008573ffffffffffffffffffffffffffffffffffffffff1673ffffffffffffffffffffffffffffffffffffffff168152602001908152602001600020905082816008018190555050505050565b600060149054906101000a900460ff16613c6b57600080fd5b81600160008273ffffffffffffffffffffffffffffffffffffffff1673ffffffffffffffffffffffffffffffffffffffff16815260200190815260200160002060010160149054906101000a900460ff16613cc557600080fd5b613ccf83336129d4565b15613d42576040517f08c379a000000000000000000000000000000000000000000000000000000000815260040180806020018281038252601e8152602001807f416c7265616479207265676973746572656420746f206163746976697479000081525060200191505060405180910390fd5b6000600160008573ffffffffffffffffffffffffffffffffffffffff1673ffffffffffffffffffffffffffffffffffffffff16815260200190815260200160002090508060030154816004015410613de5576040517f08c379a00000000000000000000000000000000000000000000000000000000081526004018080602001828103825260288152602001806143836028913960400191505060405180910390fd5b662386f26fc10000600182600201540202341015613e6b576040517f08c379a00000000000000000000000000000000000000000000000000000000081526004018080602001828103825260128152602001807f496e73756666696369656e742066756e6473000000000000000000000000000081525060200191505060405180910390fd5b80600401600081548092919060010191905055506040518060c001604052808481526020016000151581526020016000151581526020013373ffffffffffffffffffffffffffffffffffffffff168152602001600015158152602001348152508160090160003373ffffffffffffffffffffffffffffffffffffffff1673ffffffffffffffffffffffffffffffffffffffff1681526020019081526020016000206000820151816000019080519060200190613f28929190614278565b5060208201518160010160006101000a81548160ff02191690831515021790555060408201518160010160016101000a81548160ff02191690831515021790555060608201518160010160026101000a81548173ffffffffffffffffffffffffffffffffffffffff021916908373ffffffffffffffffffffffffffffffffffffffff16021790555060808201518160010160166101000a81548160ff02191690831515021790555060a082015181600201559050503381600a0160008360040154815260200190815260200160002060006101000a81548173ffffffffffffffffffffffffffffffffffffffff021916908373ffffffffffffffffffffffffffffffffffffffff1602179055507fdbd09efc0b84aa2172815c5094aa75fbdd43ae888f608bb0252cca7ae4cfefcb816000018260010160009054906101000a900473ffffffffffffffffffffffffffffffffffffffff1633863460405180806020018673ffffffffffffffffffffffffffffffffffffffff1673ffffffffffffffffffffffffffffffffffffffff1681526020018573ffffffffffffffffffffffffffffffffffffffff1673ffffffffffffffffffffffffffffffffffffffff168152602001806020018481526020018381038352888181546001816001161561010002031660029004815260200191508054600181600116156101000203166002900480156141795780601f1061414e57610100808354040283529160200191614179565b820191906000526020600020905b81548152906001019060200180831161415c57829003601f168201915b5050838103825285818151815260200191508051906020019080838360005b838110156141b3578082015181840152602081019050614198565b50505050905090810190601f1680156141e05780820380516001836020036101000a031916815260200191505b5097505050505050505060405180910390a150505050565b828054600181600116156101000203166002900490600052602060002090601f016020900481019282601f1061423957805160ff1916838001178555614267565b82800160010185558215614267579182015b8281111561426657825182559160200191906001019061424b565b5b50905061427491906142f8565b5090565b828054600181600116156101000203166002900490600052602060002090601f016020900481019282601f106142b957805160ff19168380011785556142e7565b828001600101855582156142e7579182015b828111156142e65782518255916020019190600101906142cb565b5b5090506142f491906142f8565b5090565b61431a91905b808211156143165760008160009055506001016142fe565b5090565b9056fe43616e6e6f74206c6561766520616374697669747920776974686f7574207265676973746572696e6743616e6e6f74206765742070617274696369706174696f6e2075726c20776974686f7574207265676973746572696e6720616e2061637469766974794163746976697479206361706163697479207265616368656420746f206d617820616c6c6f776564a265627a7a72315820162943b84b9e84b0903e188f997cf28d96ff1750765c0472465a49d00be306c864736f6c63430005100032",
  "source": "pragma solidity ^0.5.16;\r\n\r\nimport \"./Owner.sol\";\r\n\r\ncontract ActivityContract is Owner\r\n{\r\n\r\n    mapping(address => Activity) activities;        //owner of activity to Activity struct\r\n    mapping(uint => address) activityOwners;        //index of activity to address of activity owner\r\n    uint numberOfActivity;\r\n\r\n    struct Activity {\r\n        string name;\r\n        address owner;\r\n        bool isActive;\r\n        bool isPayActive;\r\n        uint price;\r\n        uint limit;\r\n        uint registeredCount;\r\n        uint date;\r\n        string content;\r\n        string participationUrl;        //we should change this ,string is visible :)\r\n        bytes32 validateNumber;         //this is a hash to participant verify themselves for payback money\r\n\r\n        mapping(address => Participant) participants;       //address of user to Participant struct\r\n        mapping(uint => address) participantIndex;          //index of user to address of user\r\n    }\r\n\r\n    struct Participant {\r\n        string email;\r\n        bool validated;\r\n        bool payBack;\r\n        address addr;\r\n        bool deleted;\r\n        uint256 value;      //amount of deposit ,maybe this is unnecessary :)\r\n    }\r\n\r\n    event ParticipantRegisteredAt(string name, address _Owner, address usr, string email, uint value);\r\n    event ParticipantDeletedAt(string name, address _Owner, address usr, string email, uint value);\r\n    event ParticipantPayBackAt(string name, address _Owner, address usr, string email, uint value);\r\n    event ActivityCreated(string _name, address _owner, uint _limit, uint _date);\r\n    event OwnershipTransferred(string _name, address indexed previousOwner, address indexed newOwner);\r\n\r\n    constructor(bool _isActive, bool _isPayActive) public {\r\n        isActive = _isActive;\r\n        isPayActive = _isPayActive;\r\n    }\r\n\r\n    modifier onlyActiveActivity(address _act) {\r\n        require(activities[_act].isActive);\r\n        _;\r\n    }\r\n    modifier onlyOwnerActivity(address _act) {\r\n        require(activities[_act].owner == msg.sender);\r\n        _;\r\n    }\r\n\r\n    function createActivity(string memory _name, uint _limit, uint _price, uint _date, string memory _content)\r\n    onlyActive\r\n    payable\r\n    public\r\n    {\r\n        if (msg.value != 1 * 10 ** 17) {        //assume 0.1 ether to prevent DDOS, 0.01 ether :)\r\n            revert();\r\n        }\r\n        require(activities[msg.sender].owner == address(0));\r\n        //if has not  create an activity before\r\n        activities[msg.sender] = Activity(\r\n        {\r\n        name : _name,\r\n        owner : msg.sender,\r\n        isActive : true,\r\n        isPayActive : false,\r\n        price : _price,     //only  owner of activity  can change\r\n        limit : _limit,\r\n        date : _date,\r\n        content : _content,\r\n        registeredCount : 0,\r\n        participationUrl : \"\",\r\n        validateNumber : 0\r\n        });\r\n        numberOfActivity++;\r\n        //start with index 1\r\n        activityOwners[numberOfActivity] = msg.sender;\r\n        emit ActivityCreated(_name, msg.sender, _limit, _date);\r\n    }\r\n\r\n    function registerToActivity(address _activity, string memory _email)\r\n    onlyActive\r\n    onlyActiveActivity(_activity)\r\n    payable\r\n    public {\r\n        require(!isRegistered(_activity, msg.sender), \"Already registered to activity\");\r\n\r\n        Activity storage activity = activities[_activity];\r\n        require(activity.registeredCount < activity.limit, \"Activity capacity reached to max allowed\");\r\n\r\n        require(msg.value >= activity.price * 1 * 10 ** 16, \"Insufficient funds\");        //price control 1*ether value,now 0.1 ether\r\n\r\n        activity.registeredCount++;\r\n        activity.participants[msg.sender] = Participant(_email, false, false, msg.sender, false, msg.value);\r\n        activity.participantIndex[activity.registeredCount] = msg.sender;\r\n\r\n        emit ParticipantRegisteredAt(activity.name, activity.owner, msg.sender, _email, msg.value);\r\n    }\r\n\r\n    function isRegistered(address _activity, address _participantAddr) public view returns (bool) {\r\n        Activity storage activity = activities[_activity];      //may be this is unnecessary\r\n        return activity.owner != address(0) && activity.participants[_participantAddr].addr != address(0) && !activity.participants[_participantAddr].deleted;\r\n    }\r\n\r\n    function getParticipationUrl(address _activity) public\r\n    onlyActive\r\n    onlyActiveActivity(_activity)\r\n    view returns (string memory) {\r\n        require(isRegistered(_activity, msg.sender), \"Cannot get participation url without registering an activity\");\r\n        require(activities[_activity].participants[msg.sender].validated);\r\n        return activities[_activity].participationUrl;\r\n    }\r\n\r\n    function getTotalActivity() public view returns (uint) {\r\n        return numberOfActivity;\r\n    }\r\n\r\n    function getTotalParticipant(address _activity) public view returns (uint) {\r\n        return activities[_activity].registeredCount;\r\n    }\r\n\r\n    function getLimit(address _activity) public view returns (uint) {\r\n        return activities[_activity].limit;\r\n    }\r\n\r\n    function leaveActivity(address _activity)\r\n    onlyActive\r\n    onlyActiveActivity(_activity)\r\n    public view {\r\n        require(isRegistered(_activity, msg.sender), \"Cannot leave activity without registering\");\r\n    }\r\n\r\n    function getInfoActivity(address _activity)\r\n    public view returns (string memory, address, bool, uint, uint, uint, uint, string memory){\r\n        Activity storage temp = activities[_activity];\r\n        return (temp.name, temp.owner, temp.isActive, temp.price, temp.registeredCount, temp.limit, temp.date, temp.content);\r\n    }\r\n\r\n    //Admin methods\r\n    function getParticipant(address _activity, uint idx) public\r\n    onlyActive\r\n    onlyOwnerActivity(_activity)\r\n    view\r\n    returns (uint index, string memory email, address addr, uint256 value)\r\n    {\r\n        Activity storage activity = activities[_activity];\r\n        address userAddr = activity.participantIndex[idx];\r\n        Participant storage participant = activity.participants[userAddr];\r\n        return (idx, participant.email, participant.addr, participant.value);\r\n    }\r\n\r\n    function deleteParticipant(address _activity, uint idx) public\r\n    onlyActive\r\n    onlyOwnerActivity(_activity)\r\n    {\r\n        Activity storage activity = activities[_activity];\r\n        address userAddr = activity.participantIndex[idx];\r\n        Participant storage participant = activity.participants[userAddr];\r\n\r\n        require(!participant.deleted, \"Participant already deleted\");\r\n        require(!participant.payBack, \"Participant is not payBack\");\r\n\r\n        participant.deleted = true;\r\n        participant.payBack = true;\r\n        activity.registeredCount--;\r\n\r\n        address payable payableAddressOfParticipant = address(uint160(participant.addr));\r\n        payableAddressOfParticipant.transfer(participant.value);\r\n        emit ParticipantDeletedAt(activity.name, address(_activity), msg.sender, participant.email, participant.value);\r\n    }\r\n\r\n    function validateStudentStatus(address _activity, uint idx, bool isValidated)\r\n    onlyActive\r\n    onlyOwnerActivity(_activity)\r\n    public\r\n    {\r\n        Activity storage activity = activities[_activity];\r\n        address userAddr = activity.participantIndex[idx];\r\n        Participant storage participant = activity.participants[userAddr];\r\n        participant.validated = isValidated;\r\n    }\r\n\r\n\r\n    // if we will share invitation link like this,we must change this method because string is visible on block explorer :)\r\n    function setParticipationLink(address _activity, string memory url) public\r\n    onlyActive\r\n    onlyOwnerActivity(_activity) {\r\n        activities[_activity].participationUrl = url;\r\n    }\r\n\r\n    function setPrice(address _activity, uint _price) public\r\n    onlyActive\r\n    onlyOwnerActivity(_activity) {\r\n        activities[_activity].price = _price;\r\n    }\r\n\r\n    function getPrice(address _activity) public view returns (uint) {\r\n        return activities[_activity].price;\r\n    }\r\n\r\n    function closeParticipation(address _activity) public\r\n    onlyActive\r\n    onlyOwnerActivity(_activity) {\r\n        activities[_activity].isActive = false;\r\n    }\r\n\r\n    function openParticipation(address _activity) public\r\n    onlyActive\r\n    onlyOwnerActivity(_activity) {\r\n        activities[_activity].isActive = true;\r\n    }\r\n\r\n    function closePayActive(address _activity) public onlyActive\r\n    onlyOwnerActivity(_activity) {\r\n        activities[_activity].isPayActive = false;\r\n    }\r\n\r\n    function openPayActive(address _activity) public onlyActive\r\n    onlyOwnerActivity(_activity) {\r\n        activities[_activity].isPayActive = true;\r\n    }\r\n\r\n    //only Owner set validateNumber=keccak256(key), during lesson we will share only key to participants\r\n    function validateMeReturnMoney(address _activity, string memory _key) public\r\n    onlyActive\r\n    onlyActiveActivity(_activity)\r\n    {\r\n        require(isRegistered(_activity, msg.sender));\r\n        Activity storage activity = activities[_activity];\r\n        require(activity.validateNumber == keccak256(abi.encodePacked(_key)), \"Key is not valid\");\r\n\r\n        Participant storage participant = activity.participants[msg.sender];\r\n\r\n        require(!participant.deleted, \"Participant already deleted\");\r\n        require(!participant.payBack, \"Participant is not payBack\");\r\n\r\n        participant.payBack = true;\r\n\r\n        address payable payableAddressOfParticipant = address(uint160(participant.addr));\r\n        payableAddressOfParticipant.transfer(participant.value * 6);\r\n\r\n        emit ParticipantPayBackAt(activity.name, activity.owner, msg.sender, participant.email, participant.value);\r\n    }\r\n\r\n    function setValidateHash(address _activity, bytes32 _hash) public\r\n    onlyActive\r\n    onlyOwnerActivity(_activity) {\r\n        Activity storage activity = activities[_activity];\r\n        activity.validateNumber = _hash;\r\n    }\r\n\r\n    function getValidateHash(address _activity)\r\n    onlyOwnerActivity(_activity)\r\n    public view returns (bytes32)\r\n    {\r\n        return activities[_activity].validateNumber;\r\n    }\r\n\r\n    function transferOwnershipActivity(address _activity, address newOwner)\r\n    onlyActive\r\n    onlyOwnerActivity(_activity)\r\n    public {\r\n        Activity storage activity = activities[_activity];\r\n        require(newOwner != address(0));\r\n        emit OwnershipTransferred(activity.name, activity.owner, newOwner);\r\n        activity.owner = newOwner;\r\n    }\r\n\r\n    function getName(address _activity) public view returns (string memory){\r\n        return activities[_activity].name;\r\n    }\r\n\r\n    function getActive() public view returns (bool){\r\n        return isActive;\r\n    }\r\n\r\n    function setActive() onlyOwner public {\r\n        isActive = true;\r\n    }\r\n}",
  "sourcePath": "D:/Workspaces/bounty-workspace/kero/contracts/ActivityContract.sol",
  "compiler": {
    "name": "solc",
    "version": "0.5.16+commit.9c3226ce.Emscripten.clang"
  },
  "schemaVersion": "3.3.4",
  "updatedAt": "2021-02-15T21:50:52.429Z",
  "networkType": "ethereum",
  "devdoc": {
    "methods": {}
  },
  "userdoc": {
    "methods": {}
  }
}