{
  "contractName": "Test",
  "abi": [
    {
      "anonymous": false,
      "inputs": [
        {
          "indexed": false,
          "internalType": "bytes32",
          "name": "_newValue",
          "type": "bytes32"
        }
      ],
      "name": "ValueChanged",
      "type": "event"
    },
    {
      "constant": false,
      "inputs": [
        {
          "internalType": "string",
          "name": "_key",
          "type": "string"
        }
      ],
      "name": "setValue",
      "outputs": [],
      "payable": false,
      "stateMutability": "nonpayable",
      "type": "function"
    },
    {
      "constant": false,
      "inputs": [
        {
          "internalType": "bytes32",
          "name": "_hash",
          "type": "bytes32"
        }
      ],
      "name": "setHash",
      "outputs": [],
      "payable": false,
      "stateMutability": "nonpayable",
      "type": "function"
    },
    {
      "constant": true,
      "inputs": [
        {
          "internalType": "string",
          "name": "_key",
          "type": "string"
        }
      ],
      "name": "getKeccak256",
      "outputs": [
        {
          "internalType": "bytes32",
          "name": "",
          "type": "bytes32"
        }
      ],
      "payable": false,
      "stateMutability": "pure",
      "type": "function"
    },
    {
      "constant": true,
      "inputs": [],
      "name": "getK",
      "outputs": [
        {
          "internalType": "bytes32",
          "name": "",
          "type": "bytes32"
        }
      ],
      "payable": false,
      "stateMutability": "view",
      "type": "function"
    },
    {
      "constant": true,
      "inputs": [
        {
          "internalType": "string",
          "name": "_key",
          "type": "string"
        }
      ],
      "name": "checkEqual",
      "outputs": [
        {
          "internalType": "bool",
          "name": "",
          "type": "bool"
        }
      ],
      "payable": false,
      "stateMutability": "view",
      "type": "function"
    }
  ],
  "bytecode": "0x608060405234801561001057600080fd5b506104fa806100206000396000f3fe608060405234801561001057600080fd5b50600436106100565760003560e01c8062f86ac71461005b5780630c4c42851461012a57806393a0935214610158578063ee39e7a014610213578063f9da66a514610231575b600080fd5b6101146004803603602081101561007157600080fd5b810190808035906020019064010000000081111561008e57600080fd5b8201836020820111156100a057600080fd5b803590602001918460018302840111640100000000831117156100c257600080fd5b91908080601f016020809104026020016040519081016040528093929190818152602001838380828437600081840152601f19601f820116905080830192505050505050509192919290505050610304565b6040518082815260200191505060405180910390f35b6101566004803603602081101561014057600080fd5b810190808035906020019092919050505061037f565b005b6102116004803603602081101561016e57600080fd5b810190808035906020019064010000000081111561018b57600080fd5b82018360208201111561019d57600080fd5b803590602001918460018302840111640100000000831117156101bf57600080fd5b91908080601f016020809104026020016040519081016040528093929190818152602001838380828437600081840152601f19601f820116905080830192505050505050509192919290505050610389565b005b61021b61043d565b6040518082815260200191505060405180910390f35b6102ea6004803603602081101561024757600080fd5b810190808035906020019064010000000081111561026457600080fd5b82018360208201111561027657600080fd5b8035906020019184600183028401116401000000008311171561029857600080fd5b91908080601f016020809104026020016040519081016040528093929190818152602001838380828437600081840152601f19601f820116905080830192505050505050509192919290505050610446565b604051808215151515815260200191505060405180910390f35b6000816040516020018082805190602001908083835b6020831061033d578051825260208201915060208101905060208303925061031a565b6001836020036101000a038019825116818451168082178552505050505050905001915050604051602081830303815290604052805190602001209050919050565b8060008190555050565b806040516020018082805190602001908083835b602083106103c0578051825260208201915060208101905060208303925061039d565b6001836020036101000a038019825116818451168082178552505050505050905001915050604051602081830303815290604052805190602001206000819055507f9cea8da9d6ec051819abcd4a392a4d9cf5a7adfc90f56811d9c5805a89613abc6000546040518082815260200191505060405180910390a150565b60008054905090565b6000816040516020018082805190602001908083835b6020831061047f578051825260208201915060208101905060208303925061045c565b6001836020036101000a0380198251168184511680821785525050505050509050019150506040516020818303038152906040528051906020012060005414905091905056fea265627a7a72315820aaeb0f925f06eeaffd32dcbcbbe727cc741c2b6d5661f618972dd70d37ec67ef64736f6c63430005100032",
  "source": "pragma solidity ^0.5.16;\r\n\r\ncontract Test {\r\n\r\n    bytes32 value;\r\n\r\n    event ValueChanged(bytes32 _newValue);\r\n\r\n    function setValue(string memory _key) public{\r\n        value=keccak256(abi.encodePacked(_key));\r\n        emit ValueChanged(value);\r\n    }\r\n\r\n    function setHash(bytes32 _hash) public{\r\n        value=_hash;\r\n    }\r\n\r\n    function getKeccak256(string memory _key) public pure returns(bytes32){\r\n        return keccak256(abi.encodePacked(_key));\r\n    }\r\n\r\n    function getK() public view returns(bytes32){\r\n        return value;\r\n    }\r\n\r\n    function checkEqual(string memory _key) public view returns(bool){\r\n        return value==keccak256(abi.encodePacked(_key));\r\n    }\r\n}\r\n",
  "sourcePath": "D:/Workspaces/bounty-workspace/kero/contracts/Test.sol",
  "compiler": {
    "name": "solc",
    "version": "0.5.16+commit.9c3226ce.Emscripten.clang"
  },
  "schemaVersion": "3.3.4",
  "updatedAt": "2021-02-16T14:42:09.072Z",
  "networkType": "ethereum",
  "devdoc": {
    "methods": {}
  },
  "userdoc": {
    "methods": {}
  }
}